{
  "_format": "hh-sol-artifact-1",
  "contractName": "Treasury",
  "sourceName": "contracts/Treasury.sol",
  "abi": [
    {
      "inputs": [],
      "stateMutability": "nonpayable",
      "type": "constructor"
    },
    {
      "inputs": [],
      "name": "customerAddress",
      "outputs": [
        {
          "internalType": "address",
          "name": "",
          "type": "address"
        }
      ],
      "stateMutability": "view",
      "type": "function"
    },
    {
      "inputs": [
        {
          "internalType": "address",
          "name": "",
          "type": "address"
        }
      ],
      "name": "customerAmount",
      "outputs": [
        {
          "internalType": "uint256",
          "name": "",
          "type": "uint256"
        }
      ],
      "stateMutability": "view",
      "type": "function"
    },
    {
      "inputs": [],
      "name": "deposit",
      "outputs": [],
      "stateMutability": "payable",
      "type": "function"
    },
    {
      "inputs": [],
      "name": "userBalance",
      "outputs": [
        {
          "internalType": "uint256",
          "name": "",
          "type": "uint256"
        }
      ],
      "stateMutability": "view",
      "type": "function"
    },
    {
      "inputs": [
        {
          "internalType": "address payable",
          "name": "_to",
          "type": "address"
        },
        {
          "internalType": "uint256",
          "name": "_amount",
          "type": "uint256"
        }
      ],
      "name": "withdraw",
      "outputs": [],
      "stateMutability": "nonpayable",
      "type": "function"
    }
  ],
  "bytecode": "0x608060405234801561001057600080fd5b50336000806101000a81548173ffffffffffffffffffffffffffffffffffffffff021916908373ffffffffffffffffffffffffffffffffffffffff1602179055506106a4806100606000396000f3fe60806040526004361061004a5760003560e01c806346849bdf1461004f57806361c3fe661461008c578063bf152765146100b7578063d0e30db0146100e2578063f3fef3a3146100ec575b600080fd5b34801561005b57600080fd5b50610076600480360381019061007191906103b9565b610115565b60405161008391906103ff565b60405180910390f35b34801561009857600080fd5b506100a161012d565b6040516100ae9190610429565b60405180910390f35b3480156100c357600080fd5b506100cc610151565b6040516100d991906103ff565b60405180910390f35b6100ea610198565b005b3480156100f857600080fd5b50610113600480360381019061010e91906104ae565b610233565b005b60016020528060005260406000206000915090505481565b60008054906101000a900473ffffffffffffffffffffffffffffffffffffffff1681565b6000600160003373ffffffffffffffffffffffffffffffffffffffff1673ffffffffffffffffffffffffffffffffffffffff16815260200190815260200160002054905090565b600034036101db576040517f08c379a00000000000000000000000000000000000000000000000000000000081526004016101d29061054b565b60405180910390fd5b34600160003373ffffffffffffffffffffffffffffffffffffffff1673ffffffffffffffffffffffffffffffffffffffff168152602001908152602001600020600082825461022a919061059a565b92505081905550565b600160003373ffffffffffffffffffffffffffffffffffffffff1673ffffffffffffffffffffffffffffffffffffffff168152602001908152602001600020548111156102b5576040517f08c379a00000000000000000000000000000000000000000000000000000000081526004016102ac9061061a565b60405180910390fd5b80600160003373ffffffffffffffffffffffffffffffffffffffff1673ffffffffffffffffffffffffffffffffffffffff1681526020019081526020016000206000828254610304919061063a565b925050819055508173ffffffffffffffffffffffffffffffffffffffff166108fc829081150290604051600060405180830381858888f19350505050158015610351573d6000803e3d6000fd5b505050565b600080fd5b600073ffffffffffffffffffffffffffffffffffffffff82169050919050565b60006103868261035b565b9050919050565b6103968161037b565b81146103a157600080fd5b50565b6000813590506103b38161038d565b92915050565b6000602082840312156103cf576103ce610356565b5b60006103dd848285016103a4565b91505092915050565b6000819050919050565b6103f9816103e6565b82525050565b600060208201905061041460008301846103f0565b92915050565b6104238161037b565b82525050565b600060208201905061043e600083018461041a565b92915050565b600061044f8261035b565b9050919050565b61045f81610444565b811461046a57600080fd5b50565b60008135905061047c81610456565b92915050565b61048b816103e6565b811461049657600080fd5b50565b6000813590506104a881610482565b92915050565b600080604083850312156104c5576104c4610356565b5b60006104d38582860161046d565b92505060206104e485828601610499565b9150509250929050565b600082825260208201905092915050565b7f44656f7369746520736f6d65206d6f6e65790000000000000000000000000000600082015250565b60006105356012836104ee565b9150610540826104ff565b602082019050919050565b6000602082019050818103600083015261056481610528565b9050919050565b7f4e487b7100000000000000000000000000000000000000000000000000000000600052601160045260246000fd5b60006105a5826103e6565b91506105b0836103e6565b92508282019050808211156105c8576105c761056b565b5b92915050565b7f496e73756666696369656e742066756e64730000000000000000000000000000600082015250565b60006106046012836104ee565b915061060f826105ce565b602082019050919050565b60006020820190508181036000830152610633816105f7565b9050919050565b6000610645826103e6565b9150610650836103e6565b92508282039050818111156106685761066761056b565b5b9291505056fea2646970667358221220834fd04340381d880438ae37d861e92711f70b9086c40fcbb704886819e89fda64736f6c63430008110033",
  "linkReferences": {},
  "deployedLinkReferences": {}
}